:100000000C9446000C945D000C945D000C945D0013
:100010000C945D000C945D000C945D000C945D00EC
:100020000C945D000C945D000C945D000C945D00DC
:100030000C945D000C945D000C945D000C945D00CC
:100040000C945D000C945D000C945D000C945D00BC
:100050000C945D000C945D000C945D000C945D00AC
:100060000C945D000C945D000C945D000C945D009C
:100070000C945D000C945D000C945D000C945D008C
:100080000C945D000C945D000C945D0011241FBE67
:10009000CFEFD0E4DEBFCDBF11E0A0E0B1E0E0ECF7
:1000A000F1E000E00BBF02C007900D92A231B10752
:1000B000D9F70E94D1000C94DE000C940000482F68
:1000C000592F30E020E002C02F5F3F4F2417350743
:1000D0004CF490E080E0873063E09607ACF70000D6
:1000E0000196F9CF08959BB19F7B9BB988B98BB1DD
:1000F00080688BB900008BB18F778BB982E090E07C
:100100000E945F00089581E00E947300089581318C
:1001100020F481580E947300089581550E94730055
:10012000089584E690E00E945F0088E30E947300D7
:1001300086E00E9473008FE00E94730081E00E94BD
:1001400073008AE090E00E945F0008959BB1906484
:100150009BB988B98BB180688BB900008BB18F7760
:100160008BB981E090E00E945F0008950F931F9388
:10017000CF93DF93182FC62FD72F0E94830088813B
:10018000882351F001E0010F812F0E94870089919F
:100190000E94A600102FF3CFDF91CF911F910F91F6
:1001A00008958FEF87B918B88AB91BB80E949100DB
:1001B00060E071E081E00E94B600FFCFF894FFCFCD
:1001C0004920776F726B2E20594159203A29203AE5
:0201D000290004
:00000001FF
